:04000000341D3FFC70
:040001000C00002FC0
:04000200340C0001B9
:04000300341202D4DD
:04000400AE4C0000FE
:04000500341202D0DF
:040006008E4C00001C
:04000700100CFFFEDC
:04000800340D0000B3
:04000900340E00C8E9
:04000A0034110000AD
:04000B0025AA100012
:04000C008D4A000019
:04000D0025CB1000EF
:04000E008D6B0000F6
:04000F00016A602AF8
:04001000140C0008C4
:04001100340600E0D1
:040012000C000027B7
:040013002630200073
:04001400AE0A000030
:04001500340600E0CD
:040016000C00002DAD
:0400170025AD00040F
:0400180008000020BC
:04001900340600E0C9
:04001A000C000027AF
:04001B00263020006B
:04001C00AE0B000027
:04001D00340600E0C5
:04001E000C00002DA5
:04001F0025CE0004E6
:040020002631000481
:04002100340C02D8C1
:04002200AD9100009C
:04002300341202DCB5
:040024008E520000F8
:040025001651FFE58C
:04002600FFFFFFFFDA
:04002700C0CC000049
:04002800140CFFFEB7
:04002900258C000121
:04002A00E0CC000026
:04002B00100CFFFBBB
:04002C0003E00008E5
:04002D00ACC0000063
:04002E0003E00008E3
:04002F0027BDFFFCEE
:04003000AFBF00005E
:04003100340C10007B
:0400320027BDFFFCEB
:04003300AFAC00006E
:040034000C000300B9
:040035008FBF000079
:0400360027BD0004DE
:0400370003E00008DA
:04008000341D7FFCB0
:040081000C0000A9C6
:04008200340C000139
:04008300341202D061
:04008400AE4C00007E
:04008500341202D45B
:040086008E4C00009C
:04008700100CFFFE5C
:04008800340D00C46F
:04008900340E018CA4
:04008A003411018CA0
:04008B0025AA100092
:04008C008D4A000099
:04008D0025CB10006F
:04008E008D6B000076
:04008F00014B602A97
:04009000140C000844
:04009100340600E051
:040092000C00002737
:0400930026302000F3
:04009400AE0A0000B0
:04009500340600E04D
:040096000C00002D2D
:0400970025ADFFFC98
:04009800080000A0BC
:04009900340600E049
:04009A000C0000272F
:04009B0026302000EB
:04009C00AE0B0000A7
:04009D00340600E045
:04009E000C00002D25
:04009F0025CEFFFC6F
:0400A0002631FFFC0A
:0400A100340C02DC3D
:0400A200AD9100001C
:0400A300341202D839
:0400A4008E52000078
:0400A5000251602381
:0400A6003405000419
:0400A70014ACFFE3B3
:0400A800FFFFFFFF58
:0400A90027BDFFFC74
:0400AA00AFBF0000E4
:0400AB00340C100001
:0400AC00258C00C8D7
:0400AD0027BDFFFC70
:0400AE00AFAC0000F3
:0400AF000C0003003E
:0400B0008FBF0000FE
:0400B10027BD000463
:0400B20003E000085F
:0400B300FFFFFFFF4D
:0400B4000000000147
:0400B5000000000146
:0400B600000000B492
:0400B700000000B095
:04030000340D003286
:04030100340A0001B9
:040302008FAE0000BA
:0403030027BD00040E
:0403040010000024C1
:04030600340A0000B5
:04030700340B0001B2
:040308001000001DC4
:04030A000160788096
:04030B0025E2FFFCEC
:04030C00004E10216E
:04030D008C4300001D
:04030E000160788092
:04030F0001EE1021CA
:040310008C4200001B
:040312000043102A6A
:0403130010020011C3
:04031500016078808B
:0403160025E2FFFCE1
:04031700004E102163
:040318008C4C000009
:04031A000160788086
:04031B0001EE1821B6
:04031C008C630000EE
:04031E00AC430000EC
:040320000160788080
:0403210001EE1821B0
:04032200AC6C0000BF
:04032400340A000196
:04032500256B000143
:04032600016D102A2B
:040327001402FFE2DB
:040329003402000199
:04032A00104AFFDB9B
:04032C0003E00008E2
:04032D00FFFFFFFFD0
:04032E00BADDADDAAD
:040400000000006890
:040401000000087D72
:0404020000001038AE
:04040300000011657F
:04040400000014DF01
:04040500000025844A
:0404060000002A6B5D
:0404070000002E744F
:04040800000033AC11
:040409000000358832
:04040A000000399E17
:04040B000000401598
:04040C0000004109A2
:04040D000000452284
:04040E0000004BA4FB
:04040F0000005C6F1E
:0404100000005F7118
:0404110000005FCBBD
:0404120000006F6017
:0404130000006F81F5
:040414000000700F65
:04041500000070A3D0
:040416000000711A57
:040417000000766DFE
:0404180000008A5EF8
:0404190000008A5EF7
:04041A0000008A9EB6
:04041B0000008F9AB4
:04041C000000922228
:04041D0000009580C6
:04041E0000009AA39D
:04041F0000009FA199
:040420000000A23FF7
:040421000000A41A19
:040422000000A59998
:040423000000AB1713
:040424000000ACDB4D
:040425000000AEA97C
:040426000000B49589
:040427000000BCE72E
:040428000000C65BAF
:040429000000C94BBB
:04042A000000CE817F
:04042B000000D06F8E
:04042C000000D11EDD
:04042D000000D8599A
:04042E000000F4993D
:04042F000000F55B79
:040430000000F7CE03
:040431000000F88D42
:0404320000000BAC0F
:0404330000000F3482
:04043400000012F7BB
:040435000000163C71
:04043600000021366B
:04043700000028E4B5
:0404380000002AC4D2
:04043900000034117A
:04043A000000355237
:04043B0000003F4836
:04043C00000045C3B4
:04043D0000006F6FDD
:04043E000000708AC0
:04043F000000727FC8
:0404400000008084B4
:040441000000810A2C
:040442000000899E8F
:0404430000008BCE5C
:0404440000008BF930
:0404450000008F071D
:0404460000009A9A7E
:040447000000A05AB7
:040448000000A359B4
:040449000000A4DB30
:04044A000000A6B058
:04044B000000B2B249
:04044C000000B447B1
:04044D000000BA06EB
:04044E000000BACE22
:04044F000000BD6A82
:040450000000BDAD3E
:040451000000BDB931
:040452000000C4FCE6
:040453000000C540A0
:040454000000C59847
:040455000000CA5584
:040456000000D0DBF7
:040457000000D5F1DB
:040458000000DABF07
:040459000000DD06BC
:04045A000000DDCEF3
:04045B000000E22596
:04045C000000E5CFE8
:04045D000000EE5F4E
:04045E000000F40D99
:04045F000000F4960F
:040460000000FAB7E7
:040461000000FB0C90
:040462000000FB2F6C
:040463000000FD3068
:04046400FFFFFFFF98
:04080000000000688C
:040801000000087D6E
:0408020000000BAC3B
:0408030000000F34AE
:0408040000001038A8
:040805000000116579
:04080600000012F7E5
:04080700000014DFFA
:040808000000163C9A
:040809000000213694
:04080A000000258441
:04080B00000028E4DD
:04080C0000002A6B53
:04080D0000002AC4F9
:04080E0000002E7444
:04080F00000033AC06
:04081000000034119F
:04081100000035525C
:040812000000358825
:040813000000399E0A
:0408140000003F4859
:04081500000040158A
:040816000000410994
:040817000000452276
:04081800000045C3D4
:0408190000004BA4EC
:04081A0000005C6F0F
:04081B0000005F7109
:04081C0000005FCBAE
:04081D0000006F6008
:04081E0000006F6FF8
:04081F0000006F81E5
:040820000000700F55
:040821000000708AD9
:04082200000070A3BF
:040823000000711A46
:040824000000727FDF
:040825000000766DEC
:0408260000008084CA
:040827000000810A42
:040828000000899EA5
:0408290000008A5EE3
:04082A0000008A5EE2
:04082B0000008A9EA1
:04082C0000008BCE6F
:04082D0000008BF943
:04082E0000008F0730
:04082F0000008F9A9C
:040830000000922210
:0408310000009580AE
:0408320000009A9A8E
:0408330000009AA384
:0408340000009FA180
:040835000000A05AC5
:040836000000A23FDD
:040837000000A359C1
:040838000000A41AFE
:040839000000A4DB3C
:04083A000000A5997C
:04083B000000A6B063
:04083C000000AB17F6
:04083D000000ACDB30
:04083E000000AEA95F
:04083F000000B2B251
:040840000000B447B9
:040841000000B4956A
:040842000000BA06F2
:040843000000BACE29
:040844000000BCE70D
:040845000000BD6A88
:040846000000BDAD44
:040847000000BDB937
:040848000000C4FCEC
:040849000000C540A6
:04084A000000C5984D
:04084B000000C65B88
:04084C000000C94B94
:04084D000000CA5588
:04084E000000CE8157
:04084F000000D06F66
:040850000000D0DBF9
:040851000000D11EB4
:040852000000D5F1DC
:040853000000D85970
:040854000000DABF07
:040855000000DD06BC
:040856000000DDCEF3
:040857000000E22596
:040858000000E5CFE8
:040859000000EE5F4E
:04085A000000F40D99
:04085B000000F4960F
:04085C000000F4990B
:04085D000000F55B47
:04085E000000F7CED1
:04085F000000F88D10
:040860000000FAB7E3
:040861000000FB0C8C
:040862000000FB2F68
:040863000000FD3064
:04086400DDDDADAD7C
:040FFD0000001000E0
:040FFE0000000008E7
:041FFD00000010C808
:041FFE0000000208D5
:00000001FF
